{
  "_format": "hh-sol-artifact-1",
  "contractName": "VillageSavings",
  "sourceName": "contracts/VillageSavings.sol",
  "abi": [
    {
      "inputs": [
        {
          "internalType": "address",
          "name": "member",
          "type": "address"
        }
      ],
      "name": "depositFor",
      "outputs": [],
      "stateMutability": "payable",
      "type": "function"
    },
    {
      "inputs": [
        {
          "internalType": "address",
          "name": "member",
          "type": "address"
        }
      ],
      "name": "getBalance",
      "outputs": [
        {
          "internalType": "uint256",
          "name": "totalSaved",
          "type": "uint256"
        },
        {
          "internalType": "uint256",
          "name": "loanAmount",
          "type": "uint256"
        },
        {
          "internalType": "uint256",
          "name": "loanDueDate",
          "type": "uint256"
        },
        {
          "internalType": "uint256",
          "name": "eligibleToBorrow",
          "type": "uint256"
        }
      ],
      "stateMutability": "view",
      "type": "function"
    },
    {
      "inputs": [],
      "name": "getContractBalance",
      "outputs": [
        {
          "internalType": "uint256",
          "name": "",
          "type": "uint256"
        }
      ],
      "stateMutability": "view",
      "type": "function"
    },
    {
      "inputs": [
        {
          "internalType": "address",
          "name": "",
          "type": "address"
        }
      ],
      "name": "members",
      "outputs": [
        {
          "internalType": "uint256",
          "name": "totalSaved",
          "type": "uint256"
        },
        {
          "internalType": "uint256",
          "name": "loanAmount",
          "type": "uint256"
        },
        {
          "internalType": "uint256",
          "name": "loanDueDate",
          "type": "uint256"
        }
      ],
      "stateMutability": "view",
      "type": "function"
    },
    {
      "inputs": [],
      "name": "repayLoan",
      "outputs": [],
      "stateMutability": "payable",
      "type": "function"
    },
    {
      "inputs": [
        {
          "internalType": "uint256",
          "name": "amount",
          "type": "uint256"
        },
        {
          "internalType": "uint256",
          "name": "daysToRepay",
          "type": "uint256"
        }
      ],
      "name": "requestLoan",
      "outputs": [],
      "stateMutability": "nonpayable",
      "type": "function"
    }
  ],
  "bytecode": "0x608060405234801561001057600080fd5b50610a0f806100206000396000f3fe6080604052600436106100555760003560e01c806308ae4b0c1461005a5780636f9fb98a14610099578063aa452fa6146100c4578063aa67c919146100ed578063f8b2cb4f14610109578063f966ade714610149575b600080fd5b34801561006657600080fd5b50610081600480360381019061007c919061055e565b610153565b604051610090939291906105a4565b60405180910390f35b3480156100a557600080fd5b506100ae61017d565b6040516100bb91906105db565b60405180910390f35b3480156100d057600080fd5b506100eb60048036038101906100e69190610622565b610185565b005b6101076004803603810190610102919061055e565b6102e4565b005b34801561011557600080fd5b50610130600480360381019061012b919061055e565b610382565b6040516101409493929190610662565b60405180910390f35b610151610414565b005b60006020528060005260406000206000915090508060000154908060010154908060020154905083565b600047905090565b60008060003373ffffffffffffffffffffffffffffffffffffffff1673ffffffffffffffffffffffffffffffffffffffff1681526020019081526020016000209050600081600101541461020e576040517f08c379a000000000000000000000000000000000000000000000000000000000815260040161020590610704565b60405180910390fd5b6064605082600001546102219190610753565b61022b91906107c4565b83111561026d576040517f08c379a000000000000000000000000000000000000000000000000000000000815260040161026490610841565b60405180910390fd5b82816001018190555062015180826102859190610753565b426102909190610861565b81600201819055503373ffffffffffffffffffffffffffffffffffffffff166108fc849081150290604051600060405180830381858888f193505050501580156102de573d6000803e3d6000fd5b50505050565b60003411610327576040517f08c379a000000000000000000000000000000000000000000000000000000000815260040161031e906108e1565b60405180910390fd5b346000808373ffffffffffffffffffffffffffffffffffffffff1673ffffffffffffffffffffffffffffffffffffffff16815260200190815260200160002060000160008282546103789190610861565b9250508190555050565b60008060008060008060008773ffffffffffffffffffffffffffffffffffffffff1673ffffffffffffffffffffffffffffffffffffffff1681526020019081526020016000209050806000015494508060010154935080600201549250600084036104075760646050866103f69190610753565b61040091906107c4565b915061040c565b600091505b509193509193565b60008060003373ffffffffffffffffffffffffffffffffffffffff1673ffffffffffffffffffffffffffffffffffffffff1681526020019081526020016000209050600081600101541161049d576040517f08c379a00000000000000000000000000000000000000000000000000000000081526004016104949061094d565b60405180910390fd5b80600101543410156104e4576040517f08c379a00000000000000000000000000000000000000000000000000000000081526004016104db906109b9565b60405180910390fd5b600081600101819055506000816002018190555050565b600080fd5b600073ffffffffffffffffffffffffffffffffffffffff82169050919050565b600061052b82610500565b9050919050565b61053b81610520565b811461054657600080fd5b50565b60008135905061055881610532565b92915050565b600060208284031215610574576105736104fb565b5b600061058284828501610549565b91505092915050565b6000819050919050565b61059e8161058b565b82525050565b60006060820190506105b96000830186610595565b6105c66020830185610595565b6105d36040830184610595565b949350505050565b60006020820190506105f06000830184610595565b92915050565b6105ff8161058b565b811461060a57600080fd5b50565b60008135905061061c816105f6565b92915050565b60008060408385031215610639576106386104fb565b5b60006106478582860161060d565b92505060206106588582860161060d565b9150509250929050565b60006080820190506106776000830187610595565b6106846020830186610595565b6106916040830185610595565b61069e6060830184610595565b95945050505050565b600082825260208201905092915050565b7f526570617920796f75722070726576696f7573206c6f616e2066697273740000600082015250565b60006106ee601e836106a7565b91506106f9826106b8565b602082019050919050565b6000602082019050818103600083015261071d816106e1565b9050919050565b7f4e487b7100000000000000000000000000000000000000000000000000000000600052601160045260246000fd5b600061075e8261058b565b91506107698361058b565b92508282026107778161058b565b9150828204841483151761078e5761078d610724565b5b5092915050565b7f4e487b7100000000000000000000000000000000000000000000000000000000600052601260045260246000fd5b60006107cf8261058b565b91506107da8361058b565b9250826107ea576107e9610795565b5b828204905092915050565b7f4c6f616e206578636565647320383025206f6620736176696e67730000000000600082015250565b600061082b601b836106a7565b9150610836826107f5565b602082019050919050565b6000602082019050818103600083015261085a8161081e565b9050919050565b600061086c8261058b565b91506108778361058b565b925082820190508082111561088f5761088e610724565b5b92915050565b7f4d7573742073656e642045544820746f20736176650000000000000000000000600082015250565b60006108cb6015836106a7565b91506108d682610895565b602082019050919050565b600060208201905081810360008301526108fa816108be565b9050919050565b7f4e6f20616374697665206c6f616e000000000000000000000000000000000000600082015250565b6000610937600e836106a7565b915061094282610901565b602082019050919050565b600060208201905081810360008301526109668161092a565b9050919050565b7f52657061796d656e7420616d6f756e7420746f6f206c6f770000000000000000600082015250565b60006109a36018836106a7565b91506109ae8261096d565b602082019050919050565b600060208201905081810360008301526109d281610996565b905091905056fea2646970667358221220436656db7c33175649332e5b944d5028b3ae51a995db87fe6294191874ff2ffe64736f6c63430008140033",
  "linkReferences": {},
  "deployedLinkReferences": {}
}