{
  "_format": "hh-sol-artifact-1",
  "contractName": "VillageSavings",
  "sourceName": "contracts/VillageSavings.sol",
  "abi": [
    {
      "inputs": [
        {
          "internalType": "address",
          "name": "member",
          "type": "address"
        }
      ],
      "name": "depositFor",
      "outputs": [],
      "stateMutability": "payable",
      "type": "function"
    },
    {
      "inputs": [
        {
          "internalType": "address",
          "name": "member",
          "type": "address"
        }
      ],
      "name": "getBalance",
      "outputs": [
        {
          "internalType": "uint256",
          "name": "totalSaved",
          "type": "uint256"
        },
        {
          "internalType": "uint256",
          "name": "loanAmount",
          "type": "uint256"
        },
        {
          "internalType": "uint256",
          "name": "loanDueDate",
          "type": "uint256"
        },
        {
          "internalType": "uint256",
          "name": "eligibleToBorrow",
          "type": "uint256"
        }
      ],
      "stateMutability": "view",
      "type": "function"
    },
    {
      "inputs": [],
      "name": "getContractBalance",
      "outputs": [
        {
          "internalType": "uint256",
          "name": "",
          "type": "uint256"
        }
      ],
      "stateMutability": "view",
      "type": "function"
    },
    {
      "inputs": [
        {
          "internalType": "address",
          "name": "",
          "type": "address"
        }
      ],
      "name": "members",
      "outputs": [
        {
          "internalType": "uint256",
          "name": "totalSaved",
          "type": "uint256"
        },
        {
          "internalType": "uint256",
          "name": "loanAmount",
          "type": "uint256"
        },
        {
          "internalType": "uint256",
          "name": "loanDueDate",
          "type": "uint256"
        }
      ],
      "stateMutability": "view",
      "type": "function"
    },
    {
      "inputs": [],
      "name": "repayLoan",
      "outputs": [],
      "stateMutability": "payable",
      "type": "function"
    },
    {
      "inputs": [
        {
          "internalType": "uint256",
          "name": "amount",
          "type": "uint256"
        },
        {
          "internalType": "uint256",
          "name": "daysToRepay",
          "type": "uint256"
        }
      ],
      "name": "requestLoan",
      "outputs": [],
      "stateMutability": "nonpayable",
      "type": "function"
    },
    {
      "inputs": [
        {
          "internalType": "address",
          "name": "member",
          "type": "address"
        },
        {
          "internalType": "uint256",
          "name": "amount",
          "type": "uint256"
        },
        {
          "internalType": "uint256",
          "name": "daysToRepay",
          "type": "uint256"
        }
      ],
      "name": "requestLoanFor",
      "outputs": [],
      "stateMutability": "nonpayable",
      "type": "function"
    }
  ],
  "bytecode": "0x608060405234801561001057600080fd5b50610c06806100206000396000f3fe6080604052600436106100705760003560e01c8063aa67c9191161004e578063aa67c91914610108578063afe6f8ad14610124578063f8b2cb4f1461014d578063f966ade71461018d57610070565b806308ae4b0c146100755780636f9fb98a146100b4578063aa452fa6146100df575b600080fd5b34801561008157600080fd5b5061009c60048036038101906100979190610702565b610197565b6040516100ab93929190610748565b60405180910390f35b3480156100c057600080fd5b506100c96101c1565b6040516100d6919061077f565b60405180910390f35b3480156100eb57600080fd5b50610106600480360381019061010191906107c6565b6101c9565b005b610122600480360381019061011d9190610702565b610328565b005b34801561013057600080fd5b5061014b60048036038101906101469190610806565b6103c6565b005b34801561015957600080fd5b50610174600480360381019061016f9190610702565b610526565b6040516101849493929190610859565b60405180910390f35b6101956105b8565b005b60006020528060005260406000206000915090508060000154908060010154908060020154905083565b600047905090565b60008060003373ffffffffffffffffffffffffffffffffffffffff1673ffffffffffffffffffffffffffffffffffffffff16815260200190815260200160002090506000816001015414610252576040517f08c379a0000000000000000000000000000000000000000000000000000000008152600401610249906108fb565b60405180910390fd5b606460508260000154610265919061094a565b61026f91906109bb565b8311156102b1576040517f08c379a00000000000000000000000000000000000000000000000000000000081526004016102a890610a38565b60405180910390fd5b82816001018190555062015180826102c9919061094a565b426102d49190610a58565b81600201819055503373ffffffffffffffffffffffffffffffffffffffff166108fc849081150290604051600060405180830381858888f19350505050158015610322573d6000803e3d6000fd5b50505050565b6000341161036b576040517f08c379a000000000000000000000000000000000000000000000000000000000815260040161036290610ad8565b60405180910390fd5b346000808373ffffffffffffffffffffffffffffffffffffffff1673ffffffffffffffffffffffffffffffffffffffff16815260200190815260200160002060000160008282546103bc9190610a58565b9250508190555050565b60008060008573ffffffffffffffffffffffffffffffffffffffff1673ffffffffffffffffffffffffffffffffffffffff1681526020019081526020016000209050600081600101541461044f576040517f08c379a0000000000000000000000000000000000000000000000000000000008152600401610446906108fb565b60405180910390fd5b606460508260000154610462919061094a565b61046c91906109bb565b8311156104ae576040517f08c379a00000000000000000000000000000000000000000000000000000000081526004016104a590610a38565b60405180910390fd5b82816001018190555062015180826104c6919061094a565b426104d19190610a58565b81600201819055508373ffffffffffffffffffffffffffffffffffffffff166108fc849081150290604051600060405180830381858888f1935050505015801561051f573d6000803e3d6000fd5b5050505050565b60008060008060008060008773ffffffffffffffffffffffffffffffffffffffff1673ffffffffffffffffffffffffffffffffffffffff1681526020019081526020016000209050806000015494508060010154935080600201549250600084036105ab57606460508661059a919061094a565b6105a491906109bb565b91506105b0565b600091505b509193509193565b60008060003373ffffffffffffffffffffffffffffffffffffffff1673ffffffffffffffffffffffffffffffffffffffff16815260200190815260200160002090506000816001015411610641576040517f08c379a000000000000000000000000000000000000000000000000000000000815260040161063890610b44565b60405180910390fd5b8060010154341015610688576040517f08c379a000000000000000000000000000000000000000000000000000000000815260040161067f90610bb0565b60405180910390fd5b600081600101819055506000816002018190555050565b600080fd5b600073ffffffffffffffffffffffffffffffffffffffff82169050919050565b60006106cf826106a4565b9050919050565b6106df816106c4565b81146106ea57600080fd5b50565b6000813590506106fc816106d6565b92915050565b6000602082840312156107185761071761069f565b5b6000610726848285016106ed565b91505092915050565b6000819050919050565b6107428161072f565b82525050565b600060608201905061075d6000830186610739565b61076a6020830185610739565b6107776040830184610739565b949350505050565b60006020820190506107946000830184610739565b92915050565b6107a38161072f565b81146107ae57600080fd5b50565b6000813590506107c08161079a565b92915050565b600080604083850312156107dd576107dc61069f565b5b60006107eb858286016107b1565b92505060206107fc858286016107b1565b9150509250929050565b60008060006060848603121561081f5761081e61069f565b5b600061082d868287016106ed565b935050602061083e868287016107b1565b925050604061084f868287016107b1565b9150509250925092565b600060808201905061086e6000830187610739565b61087b6020830186610739565b6108886040830185610739565b6108956060830184610739565b95945050505050565b600082825260208201905092915050565b7f526570617920796f75722070726576696f7573206c6f616e2066697273740000600082015250565b60006108e5601e8361089e565b91506108f0826108af565b602082019050919050565b60006020820190508181036000830152610914816108d8565b9050919050565b7f4e487b7100000000000000000000000000000000000000000000000000000000600052601160045260246000fd5b60006109558261072f565b91506109608361072f565b925082820261096e8161072f565b915082820484148315176109855761098461091b565b5b5092915050565b7f4e487b7100000000000000000000000000000000000000000000000000000000600052601260045260246000fd5b60006109c68261072f565b91506109d18361072f565b9250826109e1576109e061098c565b5b828204905092915050565b7f4c6f616e206578636565647320383025206f6620736176696e67730000000000600082015250565b6000610a22601b8361089e565b9150610a2d826109ec565b602082019050919050565b60006020820190508181036000830152610a5181610a15565b9050919050565b6000610a638261072f565b9150610a6e8361072f565b9250828201905080821115610a8657610a8561091b565b5b92915050565b7f4d7573742073656e642045544820746f20736176650000000000000000000000600082015250565b6000610ac260158361089e565b9150610acd82610a8c565b602082019050919050565b60006020820190508181036000830152610af181610ab5565b9050919050565b7f4e6f20616374697665206c6f616e000000000000000000000000000000000000600082015250565b6000610b2e600e8361089e565b9150610b3982610af8565b602082019050919050565b60006020820190508181036000830152610b5d81610b21565b9050919050565b7f52657061796d656e7420616d6f756e7420746f6f206c6f770000000000000000600082015250565b6000610b9a60188361089e565b9150610ba582610b64565b602082019050919050565b60006020820190508181036000830152610bc981610b8d565b905091905056fea264697066735822122052850e8cf858b8fea4e40ad8303352748589216765711549df3883ff1be3ceb264736f6c63430008140033",
  "linkReferences": {},
  "deployedLinkReferences": {}
}